{
  "_format": "hh-sol-artifact-1",
  "contractName": "CompareNFT",
  "sourceName": "contracts/compareNFT.sol",
  "abi": [
    {
      "inputs": [],
      "stateMutability": "nonpayable",
      "type": "constructor"
    },
    {
      "anonymous": false,
      "inputs": [
        {
          "indexed": true,
          "internalType": "address",
          "name": "owner",
          "type": "address"
        },
        {
          "indexed": true,
          "internalType": "address",
          "name": "approved",
          "type": "address"
        },
        {
          "indexed": true,
          "internalType": "uint256",
          "name": "tokenId",
          "type": "uint256"
        }
      ],
      "name": "Approval",
      "type": "event"
    },
    {
      "anonymous": false,
      "inputs": [
        {
          "indexed": true,
          "internalType": "address",
          "name": "owner",
          "type": "address"
        },
        {
          "indexed": true,
          "internalType": "address",
          "name": "operator",
          "type": "address"
        },
        {
          "indexed": false,
          "internalType": "bool",
          "name": "approved",
          "type": "bool"
        }
      ],
      "name": "ApprovalForAll",
      "type": "event"
    },
    {
      "anonymous": false,
      "inputs": [
        {
          "indexed": true,
          "internalType": "address",
          "name": "previousOwner",
          "type": "address"
        },
        {
          "indexed": true,
          "internalType": "address",
          "name": "newOwner",
          "type": "address"
        }
      ],
      "name": "OwnershipTransferred",
      "type": "event"
    },
    {
      "anonymous": false,
      "inputs": [
        {
          "indexed": true,
          "internalType": "uint256",
          "name": "tokenId",
          "type": "uint256"
        },
        {
          "indexed": true,
          "internalType": "address",
          "name": "owner",
          "type": "address"
        }
      ],
      "name": "TokenMinted",
      "type": "event"
    },
    {
      "anonymous": false,
      "inputs": [
        {
          "indexed": true,
          "internalType": "address",
          "name": "from",
          "type": "address"
        },
        {
          "indexed": true,
          "internalType": "address",
          "name": "to",
          "type": "address"
        },
        {
          "indexed": true,
          "internalType": "uint256",
          "name": "tokenId",
          "type": "uint256"
        }
      ],
      "name": "Transfer",
      "type": "event"
    },
    {
      "inputs": [
        {
          "internalType": "address",
          "name": "to",
          "type": "address"
        },
        {
          "internalType": "uint256",
          "name": "tokenId",
          "type": "uint256"
        }
      ],
      "name": "approve",
      "outputs": [],
      "stateMutability": "nonpayable",
      "type": "function"
    },
    {
      "inputs": [
        {
          "internalType": "address",
          "name": "owner",
          "type": "address"
        }
      ],
      "name": "balanceOf",
      "outputs": [
        {
          "internalType": "uint256",
          "name": "",
          "type": "uint256"
        }
      ],
      "stateMutability": "view",
      "type": "function"
    },
    {
      "inputs": [
        {
          "internalType": "uint256",
          "name": "tokenId",
          "type": "uint256"
        }
      ],
      "name": "burn",
      "outputs": [],
      "stateMutability": "nonpayable",
      "type": "function"
    },
    {
      "inputs": [
        {
          "internalType": "address",
          "name": "userAddress",
          "type": "address"
        }
      ],
      "name": "checkIfUserHasNFT",
      "outputs": [
        {
          "internalType": "bool",
          "name": "",
          "type": "bool"
        }
      ],
      "stateMutability": "view",
      "type": "function"
    },
    {
      "inputs": [
        {
          "internalType": "string",
          "name": "_username",
          "type": "string"
        },
        {
          "internalType": "uint256",
          "name": "_walletbalance",
          "type": "uint256"
        },
        {
          "internalType": "string",
          "name": "_tokentype",
          "type": "string"
        }
      ],
      "name": "createToken",
      "outputs": [
        {
          "internalType": "uint256",
          "name": "",
          "type": "uint256"
        }
      ],
      "stateMutability": "nonpayable",
      "type": "function"
    },
    {
      "inputs": [],
      "name": "getAllTokens",
      "outputs": [
        {
          "components": [
            {
              "internalType": "uint256",
              "name": "userId",
              "type": "uint256"
            },
            {
              "internalType": "string",
              "name": "username",
              "type": "string"
            },
            {
              "internalType": "uint256",
              "name": "walletbalance",
              "type": "uint256"
            },
            {
              "internalType": "string",
              "name": "tokentype",
              "type": "string"
            },
            {
              "internalType": "uint256",
              "name": "datecreated",
              "type": "uint256"
            }
          ],
          "internalType": "struct CompareNFT.UserInfo[]",
          "name": "",
          "type": "tuple[]"
        }
      ],
      "stateMutability": "view",
      "type": "function"
    },
    {
      "inputs": [
        {
          "internalType": "uint256",
          "name": "tokenId",
          "type": "uint256"
        }
      ],
      "name": "getApproved",
      "outputs": [
        {
          "internalType": "address",
          "name": "",
          "type": "address"
        }
      ],
      "stateMutability": "view",
      "type": "function"
    },
    {
      "inputs": [
        {
          "internalType": "address",
          "name": "owner",
          "type": "address"
        },
        {
          "internalType": "address",
          "name": "operator",
          "type": "address"
        }
      ],
      "name": "isApprovedForAll",
      "outputs": [
        {
          "internalType": "bool",
          "name": "",
          "type": "bool"
        }
      ],
      "stateMutability": "view",
      "type": "function"
    },
    {
      "inputs": [],
      "name": "name",
      "outputs": [
        {
          "internalType": "string",
          "name": "",
          "type": "string"
        }
      ],
      "stateMutability": "view",
      "type": "function"
    },
    {
      "inputs": [],
      "name": "owner",
      "outputs": [
        {
          "internalType": "address",
          "name": "",
          "type": "address"
        }
      ],
      "stateMutability": "view",
      "type": "function"
    },
    {
      "inputs": [
        {
          "internalType": "uint256",
          "name": "tokenId",
          "type": "uint256"
        }
      ],
      "name": "ownerOf",
      "outputs": [
        {
          "internalType": "address",
          "name": "",
          "type": "address"
        }
      ],
      "stateMutability": "view",
      "type": "function"
    },
    {
      "inputs": [],
      "name": "renounceOwnership",
      "outputs": [],
      "stateMutability": "nonpayable",
      "type": "function"
    },
    {
      "inputs": [
        {
          "internalType": "address",
          "name": "from",
          "type": "address"
        },
        {
          "internalType": "address",
          "name": "to",
          "type": "address"
        },
        {
          "internalType": "uint256",
          "name": "tokenId",
          "type": "uint256"
        }
      ],
      "name": "safeTransferFrom",
      "outputs": [],
      "stateMutability": "nonpayable",
      "type": "function"
    },
    {
      "inputs": [
        {
          "internalType": "address",
          "name": "from",
          "type": "address"
        },
        {
          "internalType": "address",
          "name": "to",
          "type": "address"
        },
        {
          "internalType": "uint256",
          "name": "tokenId",
          "type": "uint256"
        },
        {
          "internalType": "bytes",
          "name": "data",
          "type": "bytes"
        }
      ],
      "name": "safeTransferFrom",
      "outputs": [],
      "stateMutability": "nonpayable",
      "type": "function"
    },
    {
      "inputs": [
        {
          "internalType": "address",
          "name": "operator",
          "type": "address"
        },
        {
          "internalType": "bool",
          "name": "approved",
          "type": "bool"
        }
      ],
      "name": "setApprovalForAll",
      "outputs": [],
      "stateMutability": "nonpayable",
      "type": "function"
    },
    {
      "inputs": [
        {
          "internalType": "bytes4",
          "name": "interfaceId",
          "type": "bytes4"
        }
      ],
      "name": "supportsInterface",
      "outputs": [
        {
          "internalType": "bool",
          "name": "",
          "type": "bool"
        }
      ],
      "stateMutability": "view",
      "type": "function"
    },
    {
      "inputs": [],
      "name": "symbol",
      "outputs": [
        {
          "internalType": "string",
          "name": "",
          "type": "string"
        }
      ],
      "stateMutability": "view",
      "type": "function"
    },
    {
      "inputs": [],
      "name": "tokenCounter",
      "outputs": [
        {
          "internalType": "uint256",
          "name": "",
          "type": "uint256"
        }
      ],
      "stateMutability": "view",
      "type": "function"
    },
    {
      "inputs": [
        {
          "internalType": "uint256",
          "name": "tokenId",
          "type": "uint256"
        }
      ],
      "name": "tokenURI",
      "outputs": [
        {
          "internalType": "string",
          "name": "",
          "type": "string"
        }
      ],
      "stateMutability": "view",
      "type": "function"
    },
    {
      "inputs": [
        {
          "internalType": "address",
          "name": "from",
          "type": "address"
        },
        {
          "internalType": "address",
          "name": "to",
          "type": "address"
        },
        {
          "internalType": "uint256",
          "name": "tokenId",
          "type": "uint256"
        }
      ],
      "name": "transferFrom",
      "outputs": [],
      "stateMutability": "nonpayable",
      "type": "function"
    },
    {
      "inputs": [
        {
          "internalType": "address",
          "name": "newOwner",
          "type": "address"
        }
      ],
      "name": "transferOwnership",
      "outputs": [],
      "stateMutability": "nonpayable",
      "type": "function"
    },
    {
      "inputs": [],
      "name": "userCounter",
      "outputs": [
        {
          "internalType": "uint256",
          "name": "",
          "type": "uint256"
        }
      ],
      "stateMutability": "view",
      "type": "function"
    },
    {
      "inputs": [
        {
          "internalType": "uint256",
          "name": "",
          "type": "uint256"
        }
      ],
      "name": "userInfo",
      "outputs": [
        {
          "internalType": "uint256",
          "name": "userId",
          "type": "uint256"
        },
        {
          "internalType": "string",
          "name": "username",
          "type": "string"
        },
        {
          "internalType": "uint256",
          "name": "walletbalance",
          "type": "uint256"
        },
        {
          "internalType": "string",
          "name": "tokentype",
          "type": "string"
        },
        {
          "internalType": "uint256",
          "name": "datecreated",
          "type": "uint256"
        }
      ],
      "stateMutability": "view",
      "type": "function"
    }
  ],
  "bytecode": "0x60806040523480156200001157600080fd5b506040518060400160405280600a81526020017f436f6d706172654e4654000000000000000000000000000000000000000000008152506040518060400160405280600581526020017f55434e4654000000000000000000000000000000000000000000000000000000815250816000908051906020019062000096929190620001b6565b508060019080519060200190620000af929190620001b6565b505050620000d2620000c6620000e860201b60201c565b620000f060201b60201c565b60006007819055506000600881905550620002cb565b600033905090565b6000600660009054906101000a900473ffffffffffffffffffffffffffffffffffffffff16905081600660006101000a81548173ffffffffffffffffffffffffffffffffffffffff021916908373ffffffffffffffffffffffffffffffffffffffff1602179055508173ffffffffffffffffffffffffffffffffffffffff168173ffffffffffffffffffffffffffffffffffffffff167f8be0079c531659141344cd1fd0a4f28419497f9722a3daafe3b4186f6b6457e060405160405180910390a35050565b828054620001c49062000295565b90600052602060002090601f016020900481019282620001e8576000855562000234565b82601f106200020357805160ff191683800117855562000234565b8280016001018555821562000234579182015b828111156200023357825182559160200191906001019062000216565b5b50905062000243919062000247565b5090565b5b808211156200026257600081600090555060010162000248565b5090565b7f4e487b7100000000000000000000000000000000000000000000000000000000600052602260045260246000fd5b60006002820490506001821680620002ae57607f821691505b60208210811415620002c557620002c462000266565b5b50919050565b61378780620002db6000396000f3fe608060405234801561001057600080fd5b506004361061014d5760003560e01c806370a08231116100c3578063c6c9b5b11161007c578063c6c9b5b1146103a0578063c87b56dd146103d0578063d082e38114610400578063e985e9c51461041e578063f0c37a591461044e578063f2fde38b1461046c5761014d565b806370a08231146102f2578063715018a6146103225780638da5cb5b1461032c57806395d89b411461034a578063a22cb46514610368578063b88d4fde146103845761014d565b806323b872dd1161011557806323b872dd1461021c5780632a5c792a1461023857806342842e0e1461025657806342966c681461027257806351d70bc41461028e5780636352211e146102c25761014d565b806301ffc9a71461015257806306fdde0314610182578063081812fc146101a0578063095ea7b3146101d05780631bf7bfd4146101ec575b600080fd5b61016c600480360381019061016791906123df565b610488565b6040516101799190612427565b60405180910390f35b61018a61056a565b60405161019791906124db565b60405180910390f35b6101ba60048036038101906101b59190612533565b6105fc565b6040516101c791906125a1565b60405180910390f35b6101ea60048036038101906101e591906125e8565b610642565b005b61020660048036038101906102019190612628565b61075a565b6040516102139190612427565b60405180910390f35b61023660048036038101906102319190612655565b6107b0565b005b610240610810565b60405161024d9190612840565b60405180910390f35b610270600480360381019061026b9190612655565b610a12565b005b61028c60048036038101906102879190612533565b610a32565b005b6102a860048036038101906102a39190612533565b610c16565b6040516102b9959493929190612871565b60405180910390f35b6102dc60048036038101906102d79190612533565b610d5c565b6040516102e991906125a1565b60405180910390f35b61030c60048036038101906103079190612628565b610de3565b60405161031991906128d2565b60405180910390f35b61032a610e9b565b005b610334610eaf565b60405161034191906125a1565b60405180910390f35b610352610ed9565b60405161035f91906124db565b60405180910390f35b610382600480360381019061037d9190612919565b610f6b565b005b61039e60048036038101906103999190612a8e565b610f81565b005b6103ba60048036038101906103b59190612bb2565b610fe3565b6040516103c791906128d2565b60405180910390f35b6103ea60048036038101906103e59190612533565b611215565b6040516103f791906124db565b60405180910390f35b610408611302565b60405161041591906128d2565b60405180910390f35b61043860048036038101906104339190612c3d565b611308565b6040516104459190612427565b60405180910390f35b61045661139c565b60405161046391906128d2565b60405180910390f35b61048660048036038101906104819190612628565b6113a2565b005b60007f80ac58cd000000000000000000000000000000000000000000000000000000007bffffffffffffffffffffffffffffffffffffffffffffffffffffffff1916827bffffffffffffffffffffffffffffffffffffffffffffffffffffffff1916148061055357507f5b5e139f000000000000000000000000000000000000000000000000000000007bffffffffffffffffffffffffffffffffffffffffffffffffffffffff1916827bffffffffffffffffffffffffffffffffffffffffffffffffffffffff1916145b80610563575061056282611426565b5b9050919050565b60606000805461057990612cac565b80601f01602080910402602001604051908101604052809291908181526020018280546105a590612cac565b80156105f25780601f106105c7576101008083540402835291602001916105f2565b820191906000526020600020905b8154815290600101906020018083116105d557829003601f168201915b5050505050905090565b600061060782611490565b6004600083815260200190815260200160002060009054906101000a900473ffffffffffffffffffffffffffffffffffffffff169050919050565b600061064d82610d5c565b90508073ffffffffffffffffffffffffffffffffffffffff168373ffffffffffffffffffffffffffffffffffffffff1614156106be576040517f08c379a00000000000000000000000000000000000000000000000000000000081526004016106b590612d50565b60405180910390fd5b8073ffffffffffffffffffffffffffffffffffffffff166106dd6114db565b73ffffffffffffffffffffffffffffffffffffffff16148061070c575061070b816107066114db565b611308565b5b61074b576040517f08c379a000000000000000000000000000000000000000000000000000000000815260040161074290612de2565b60405180910390fd5b61075583836114e3565b505050565b6000600b60008373ffffffffffffffffffffffffffffffffffffffff1673ffffffffffffffffffffffffffffffffffffffff16815260200190815260200160002060009054906101000a900460ff169050919050565b6107c16107bb6114db565b8261159c565b610800576040517f08c379a00000000000000000000000000000000000000000000000000000000081526004016107f790612e74565b60405180910390fd5b61080b838383611631565b505050565b6060600060075467ffffffffffffffff8111156108305761082f612963565b5b60405190808252806020026020018201604052801561086957816020015b610856612261565b81526020019060019003908161084e5790505b50905060005b600754811015610a0a57600c60008281526020019081526020016000206040518060a0016040529081600082015481526020016001820180546108b190612cac565b80601f01602080910402602001604051908101604052809291908181526020018280546108dd90612cac565b801561092a5780601f106108ff5761010080835404028352916020019161092a565b820191906000526020600020905b81548152906001019060200180831161090d57829003601f168201915b505050505081526020016002820154815260200160038201805461094d90612cac565b80601f016020809104026020016040519081016040528092919081815260200182805461097990612cac565b80156109c65780601f1061099b576101008083540402835291602001916109c6565b820191906000526020600020905b8154815290600101906020018083116109a957829003601f168201915b505050505081526020016004820154815250508282815181106109ec576109eb612e94565b5b60200260200101819052508080610a0290612ef2565b91505061086f565b508091505090565b610a2d83838360405180602001604052806000815250610f81565b505050565b610a43610a3d6114db565b8261159c565b610a82576040517f08c379a0000000000000000000000000000000000000000000000000000000008152600401610a7990612fad565b60405180910390fd5b6000600c60008381526020019081526020016000206001018054610aa590612cac565b80601f0160208091040260200160405190810160405280929190818152602001828054610ad190612cac565b8015610b1e5780601f10610af357610100808354040283529160200191610b1e565b820191906000526020600020905b815481529060010190602001808311610b0157829003601f168201915b50505050509050610b2e8261192b565b600c6000838152602001908152602001600020600080820160009055600182016000610b5a9190612290565b6002820160009055600382016000610b729190612290565b600482016000905550506000600a82604051610b8e9190613009565b908152602001604051809103902060006101000a81548160ff0219169083151502179055506000600b6000610bc16114db565b73ffffffffffffffffffffffffffffffffffffffff1673ffffffffffffffffffffffffffffffffffffffff16815260200190815260200160002060006101000a81548160ff0219169083151502179055505050565b600c602052806000526040600020600091509050806000015490806001018054610c3f90612cac565b80601f0160208091040260200160405190810160405280929190818152602001828054610c6b90612cac565b8015610cb85780601f10610c8d57610100808354040283529160200191610cb8565b820191906000526020600020905b815481529060010190602001808311610c9b57829003601f168201915b505050505090806002015490806003018054610cd390612cac565b80601f0160208091040260200160405190810160405280929190818152602001828054610cff90612cac565b8015610d4c5780601f10610d2157610100808354040283529160200191610d4c565b820191906000526020600020905b815481529060010190602001808311610d2f57829003601f168201915b5050505050908060040154905085565b600080610d6883611a79565b9050600073ffffffffffffffffffffffffffffffffffffffff168173ffffffffffffffffffffffffffffffffffffffff161415610dda576040517f08c379a0000000000000000000000000000000000000000000000000000000008152600401610dd19061306c565b60405180910390fd5b80915050919050565b60008073ffffffffffffffffffffffffffffffffffffffff168273ffffffffffffffffffffffffffffffffffffffff161415610e54576040517f08c379a0000000000000000000000000000000000000000000000000000000008152600401610e4b906130fe565b60405180910390fd5b600360008373ffffffffffffffffffffffffffffffffffffffff1673ffffffffffffffffffffffffffffffffffffffff168152602001908152602001600020549050919050565b610ea3611ab6565b610ead6000611b34565b565b6000600660009054906101000a900473ffffffffffffffffffffffffffffffffffffffff16905090565b606060018054610ee890612cac565b80601f0160208091040260200160405190810160405280929190818152602001828054610f1490612cac565b8015610f615780601f10610f3657610100808354040283529160200191610f61565b820191906000526020600020905b815481529060010190602001808311610f4457829003601f168201915b5050505050905090565b610f7d610f766114db565b8383611bfa565b5050565b610f92610f8c6114db565b8361159c565b610fd1576040517f08c379a0000000000000000000000000000000000000000000000000000000008152600401610fc890612e74565b60405180910390fd5b610fdd84848484611d67565b50505050565b6000600a84604051610ff59190613009565b908152602001604051809103902060009054906101000a900460ff1615611051576040517f08c379a000000000000000000000000000000000000000000000000000000000815260040161104890613190565b60405180910390fd5b6001600a856040516110639190613009565b908152602001604051809103902060006101000a81548160ff02191690831515021790555060006008600081548092919061109d90612ef2565b9190505590506040518060a0016040528082815260200186815260200185815260200184815260200142815250600c600060075481526020019081526020016000206000820151816000015560208201518160010190805190602001906111059291906122d0565b5060408201518160020155606082015181600301908051906020019061112c9291906122d0565b506080820151816004015590505061114633600754611dc3565b6001600b60003373ffffffffffffffffffffffffffffffffffffffff1673ffffffffffffffffffffffffffffffffffffffff16815260200190815260200160002060006101000a81548160ff0219169083151502179055503373ffffffffffffffffffffffffffffffffffffffff166007547f3a5398bda6f1f57d6c96834fa9bf02b5517bdc847d14312015a917ba421c31c960405160405180910390a3600760008154809291906111f790612ef2565b9190505550600160075461120b91906131b0565b9150509392505050565b606061122082611de1565b61125f576040517f08c379a000000000000000000000000000000000000000000000000000000000815260040161125690613256565b60405180910390fd5b60096000838152602001908152602001600020805461127d90612cac565b80601f01602080910402602001604051908101604052809291908181526020018280546112a990612cac565b80156112f65780601f106112cb576101008083540402835291602001916112f6565b820191906000526020600020905b8154815290600101906020018083116112d957829003601f168201915b50505050509050919050565b60075481565b6000600560008473ffffffffffffffffffffffffffffffffffffffff1673ffffffffffffffffffffffffffffffffffffffff16815260200190815260200160002060008373ffffffffffffffffffffffffffffffffffffffff1673ffffffffffffffffffffffffffffffffffffffff16815260200190815260200160002060009054906101000a900460ff16905092915050565b60085481565b6113aa611ab6565b600073ffffffffffffffffffffffffffffffffffffffff168173ffffffffffffffffffffffffffffffffffffffff16141561141a576040517f08c379a0000000000000000000000000000000000000000000000000000000008152600401611411906132e8565b60405180910390fd5b61142381611b34565b50565b60007f01ffc9a7000000000000000000000000000000000000000000000000000000007bffffffffffffffffffffffffffffffffffffffffffffffffffffffff1916827bffffffffffffffffffffffffffffffffffffffffffffffffffffffff1916149050919050565b61149981611de1565b6114d8576040517f08c379a00000000000000000000000000000000000000000000000000000000081526004016114cf9061306c565b60405180910390fd5b50565b600033905090565b816004600083815260200190815260200160002060006101000a81548173ffffffffffffffffffffffffffffffffffffffff021916908373ffffffffffffffffffffffffffffffffffffffff160217905550808273ffffffffffffffffffffffffffffffffffffffff1661155683610d5c565b73ffffffffffffffffffffffffffffffffffffffff167f8c5be1e5ebec7d5bd14f71427d1e84f3dd0314c0f7b2291e5b200ac8c7c3b92560405160405180910390a45050565b6000806115a883610d5c565b90508073ffffffffffffffffffffffffffffffffffffffff168473ffffffffffffffffffffffffffffffffffffffff1614806115ea57506115e98185611308565b5b8061162857508373ffffffffffffffffffffffffffffffffffffffff16611610846105fc565b73ffffffffffffffffffffffffffffffffffffffff16145b91505092915050565b8273ffffffffffffffffffffffffffffffffffffffff1661165182610d5c565b73ffffffffffffffffffffffffffffffffffffffff16146116a7576040517f08c379a000000000000000000000000000000000000000000000000000000000815260040161169e9061337a565b60405180910390fd5b600073ffffffffffffffffffffffffffffffffffffffff168273ffffffffffffffffffffffffffffffffffffffff161415611717576040517f08c379a000000000000000000000000000000000000000000000000000000000815260040161170e9061340c565b60405180910390fd5b6117248383836001611e22565b8273ffffffffffffffffffffffffffffffffffffffff1661174482610d5c565b73ffffffffffffffffffffffffffffffffffffffff161461179a576040517f08c379a00000000000000000000000000000000000000000000000000000000081526004016117919061337a565b60405180910390fd5b6004600082815260200190815260200160002060006101000a81549073ffffffffffffffffffffffffffffffffffffffff02191690556001600360008573ffffffffffffffffffffffffffffffffffffffff1673ffffffffffffffffffffffffffffffffffffffff168152602001908152602001600020600082825403925050819055506001600360008473ffffffffffffffffffffffffffffffffffffffff1673ffffffffffffffffffffffffffffffffffffffff16815260200190815260200160002060008282540192505081905550816002600083815260200190815260200160002060006101000a81548173ffffffffffffffffffffffffffffffffffffffff021916908373ffffffffffffffffffffffffffffffffffffffff160217905550808273ffffffffffffffffffffffffffffffffffffffff168473ffffffffffffffffffffffffffffffffffffffff167fddf252ad1be2c89b69c2b068fc378daa952ba7f163c4a11628f55a4df523b3ef60405160405180910390a46119268383836001611e28565b505050565b600061193682610d5c565b9050611946816000846001611e22565b61194f82610d5c565b90506004600083815260200190815260200160002060006101000a81549073ffffffffffffffffffffffffffffffffffffffff02191690556001600360008373ffffffffffffffffffffffffffffffffffffffff1673ffffffffffffffffffffffffffffffffffffffff168152602001908152602001600020600082825403925050819055506002600083815260200190815260200160002060006101000a81549073ffffffffffffffffffffffffffffffffffffffff021916905581600073ffffffffffffffffffffffffffffffffffffffff168273ffffffffffffffffffffffffffffffffffffffff167fddf252ad1be2c89b69c2b068fc378daa952ba7f163c4a11628f55a4df523b3ef60405160405180910390a4611a75816000846001611e28565b5050565b60006002600083815260200190815260200160002060009054906101000a900473ffffffffffffffffffffffffffffffffffffffff169050919050565b611abe6114db565b73ffffffffffffffffffffffffffffffffffffffff16611adc610eaf565b73ffffffffffffffffffffffffffffffffffffffff1614611b32576040517f08c379a0000000000000000000000000000000000000000000000000000000008152600401611b2990613478565b60405180910390fd5b565b6000600660009054906101000a900473ffffffffffffffffffffffffffffffffffffffff16905081600660006101000a81548173ffffffffffffffffffffffffffffffffffffffff021916908373ffffffffffffffffffffffffffffffffffffffff1602179055508173ffffffffffffffffffffffffffffffffffffffff168173ffffffffffffffffffffffffffffffffffffffff167f8be0079c531659141344cd1fd0a4f28419497f9722a3daafe3b4186f6b6457e060405160405180910390a35050565b8173ffffffffffffffffffffffffffffffffffffffff168373ffffffffffffffffffffffffffffffffffffffff161415611c69576040517f08c379a0000000000000000000000000000000000000000000000000000000008152600401611c60906134e4565b60405180910390fd5b80600560008573ffffffffffffffffffffffffffffffffffffffff1673ffffffffffffffffffffffffffffffffffffffff16815260200190815260200160002060008473ffffffffffffffffffffffffffffffffffffffff1673ffffffffffffffffffffffffffffffffffffffff16815260200190815260200160002060006101000a81548160ff0219169083151502179055508173ffffffffffffffffffffffffffffffffffffffff168373ffffffffffffffffffffffffffffffffffffffff167f17307eab39ab6107e8899845ad3d59bd9653f200f220920489ca2b5937696c3183604051611d5a9190612427565b60405180910390a3505050565b611d72848484611631565b611d7e84848484611e2e565b611dbd576040517f08c379a0000000000000000000000000000000000000000000000000000000008152600401611db490613576565b60405180910390fd5b50505050565b611ddd828260405180602001604052806000815250611fc5565b5050565b60008073ffffffffffffffffffffffffffffffffffffffff16611e0383611a79565b73ffffffffffffffffffffffffffffffffffffffff1614159050919050565b50505050565b50505050565b6000611e4f8473ffffffffffffffffffffffffffffffffffffffff16612020565b15611fb8578373ffffffffffffffffffffffffffffffffffffffff1663150b7a02611e786114db565b8786866040518563ffffffff1660e01b8152600401611e9a94939291906135eb565b602060405180830381600087803b158015611eb457600080fd5b505af1925050508015611ee557506040513d601f19601f82011682018060405250810190611ee2919061364c565b60015b611f68573d8060008114611f15576040519150601f19603f3d011682016040523d82523d6000602084013e611f1a565b606091505b50600081511415611f60576040517f08c379a0000000000000000000000000000000000000000000000000000000008152600401611f5790613576565b60405180910390fd5b805181602001fd5b63150b7a0260e01b7bffffffffffffffffffffffffffffffffffffffffffffffffffffffff1916817bffffffffffffffffffffffffffffffffffffffffffffffffffffffff191614915050611fbd565b600190505b949350505050565b611fcf8383612043565b611fdc6000848484611e2e565b61201b576040517f08c379a000000000000000000000000000000000000000000000000000000000815260040161201290613576565b60405180910390fd5b505050565b6000808273ffffffffffffffffffffffffffffffffffffffff163b119050919050565b600073ffffffffffffffffffffffffffffffffffffffff168273ffffffffffffffffffffffffffffffffffffffff1614156120b3576040517f08c379a00000000000000000000000000000000000000000000000000000000081526004016120aa906136c5565b60405180910390fd5b6120bc81611de1565b156120fc576040517f08c379a00000000000000000000000000000000000000000000000000000000081526004016120f390613731565b60405180910390fd5b61210a600083836001611e22565b61211381611de1565b15612153576040517f08c379a000000000000000000000000000000000000000000000000000000000815260040161214a90613731565b60405180910390fd5b6001600360008473ffffffffffffffffffffffffffffffffffffffff1673ffffffffffffffffffffffffffffffffffffffff16815260200190815260200160002060008282540192505081905550816002600083815260200190815260200160002060006101000a81548173ffffffffffffffffffffffffffffffffffffffff021916908373ffffffffffffffffffffffffffffffffffffffff160217905550808273ffffffffffffffffffffffffffffffffffffffff16600073ffffffffffffffffffffffffffffffffffffffff167fddf252ad1be2c89b69c2b068fc378daa952ba7f163c4a11628f55a4df523b3ef60405160405180910390a461225d600083836001611e28565b5050565b6040518060a0016040528060008152602001606081526020016000815260200160608152602001600081525090565b50805461229c90612cac565b6000825580601f106122ae57506122cd565b601f0160209004906000526020600020908101906122cc9190612356565b5b50565b8280546122dc90612cac565b90600052602060002090601f0160209004810192826122fe5760008555612345565b82601f1061231757805160ff1916838001178555612345565b82800160010185558215612345579182015b82811115612344578251825591602001919060010190612329565b5b5090506123529190612356565b5090565b5b8082111561236f576000816000905550600101612357565b5090565b6000604051905090565b600080fd5b600080fd5b60007fffffffff0000000000000000000000000000000000000000000000000000000082169050919050565b6123bc81612387565b81146123c757600080fd5b50565b6000813590506123d9816123b3565b92915050565b6000602082840312156123f5576123f461237d565b5b6000612403848285016123ca565b91505092915050565b60008115159050919050565b6124218161240c565b82525050565b600060208201905061243c6000830184612418565b92915050565b600081519050919050565b600082825260208201905092915050565b60005b8381101561247c578082015181840152602081019050612461565b8381111561248b576000848401525b50505050565b6000601f19601f8301169050919050565b60006124ad82612442565b6124b7818561244d565b93506124c781856020860161245e565b6124d081612491565b840191505092915050565b600060208201905081810360008301526124f581846124a2565b905092915050565b6000819050919050565b612510816124fd565b811461251b57600080fd5b50565b60008135905061252d81612507565b92915050565b6000602082840312156125495761254861237d565b5b60006125578482850161251e565b91505092915050565b600073ffffffffffffffffffffffffffffffffffffffff82169050919050565b600061258b82612560565b9050919050565b61259b81612580565b82525050565b60006020820190506125b66000830184612592565b92915050565b6125c581612580565b81146125d057600080fd5b50565b6000813590506125e2816125bc565b92915050565b600080604083850312156125ff576125fe61237d565b5b600061260d858286016125d3565b925050602061261e8582860161251e565b9150509250929050565b60006020828403121561263e5761263d61237d565b5b600061264c848285016125d3565b91505092915050565b60008060006060848603121561266e5761266d61237d565b5b600061267c868287016125d3565b935050602061268d868287016125d3565b925050604061269e8682870161251e565b9150509250925092565b600081519050919050565b600082825260208201905092915050565b6000819050602082019050919050565b6126dd816124fd565b82525050565b600082825260208201905092915050565b60006126ff82612442565b61270981856126e3565b935061271981856020860161245e565b61272281612491565b840191505092915050565b600060a08301600083015161274560008601826126d4565b506020830151848203602086015261275d82826126f4565b915050604083015161277260408601826126d4565b506060830151848203606086015261278a82826126f4565b915050608083015161279f60808601826126d4565b508091505092915050565b60006127b6838361272d565b905092915050565b6000602082019050919050565b60006127d6826126a8565b6127e081856126b3565b9350836020820285016127f2856126c4565b8060005b8581101561282e578484038952815161280f85826127aa565b945061281a836127be565b925060208a019950506001810190506127f6565b50829750879550505050505092915050565b6000602082019050818103600083015261285a81846127cb565b905092915050565b61286b816124fd565b82525050565b600060a0820190506128866000830188612862565b818103602083015261289881876124a2565b90506128a76040830186612862565b81810360608301526128b981856124a2565b90506128c86080830184612862565b9695505050505050565b60006020820190506128e76000830184612862565b92915050565b6128f68161240c565b811461290157600080fd5b50565b600081359050612913816128ed565b92915050565b600080604083850312156129305761292f61237d565b5b600061293e858286016125d3565b925050602061294f85828601612904565b9150509250929050565b600080fd5b600080fd5b7f4e487b7100000000000000000000000000000000000000000000000000000000600052604160045260246000fd5b61299b82612491565b810181811067ffffffffffffffff821117156129ba576129b9612963565b5b80604052505050565b60006129cd612373565b90506129d98282612992565b919050565b600067ffffffffffffffff8211156129f9576129f8612963565b5b612a0282612491565b9050602081019050919050565b82818337600083830152505050565b6000612a31612a2c846129de565b6129c3565b905082815260208101848484011115612a4d57612a4c61295e565b5b612a58848285612a0f565b509392505050565b600082601f830112612a7557612a74612959565b5b8135612a85848260208601612a1e565b91505092915050565b60008060008060808587031215612aa857612aa761237d565b5b6000612ab6878288016125d3565b9450506020612ac7878288016125d3565b9350506040612ad88782880161251e565b925050606085013567ffffffffffffffff811115612af957612af8612382565b5b612b0587828801612a60565b91505092959194509250565b600067ffffffffffffffff821115612b2c57612b2b612963565b5b612b3582612491565b9050602081019050919050565b6000612b55612b5084612b11565b6129c3565b905082815260208101848484011115612b7157612b7061295e565b5b612b7c848285612a0f565b509392505050565b600082601f830112612b9957612b98612959565b5b8135612ba9848260208601612b42565b91505092915050565b600080600060608486031215612bcb57612bca61237d565b5b600084013567ffffffffffffffff811115612be957612be8612382565b5b612bf586828701612b84565b9350506020612c068682870161251e565b925050604084013567ffffffffffffffff811115612c2757612c26612382565b5b612c3386828701612b84565b9150509250925092565b60008060408385031215612c5457612c5361237d565b5b6000612c62858286016125d3565b9250506020612c73858286016125d3565b9150509250929050565b7f4e487b7100000000000000000000000000000000000000000000000000000000600052602260045260246000fd5b60006002820490506001821680612cc457607f821691505b60208210811415612cd857612cd7612c7d565b5b50919050565b7f4552433732313a20617070726f76616c20746f2063757272656e74206f776e6560008201527f7200000000000000000000000000000000000000000000000000000000000000602082015250565b6000612d3a60218361244d565b9150612d4582612cde565b604082019050919050565b60006020820190508181036000830152612d6981612d2d565b9050919050565b7f4552433732313a20617070726f76652063616c6c6572206973206e6f7420746f60008201527f6b656e206f776e6572206f7220617070726f76656420666f7220616c6c000000602082015250565b6000612dcc603d8361244d565b9150612dd782612d70565b604082019050919050565b60006020820190508181036000830152612dfb81612dbf565b9050919050565b7f4552433732313a2063616c6c6572206973206e6f7420746f6b656e206f776e6560008201527f72206f7220617070726f76656400000000000000000000000000000000000000602082015250565b6000612e5e602d8361244d565b9150612e6982612e02565b604082019050919050565b60006020820190508181036000830152612e8d81612e51565b9050919050565b7f4e487b7100000000000000000000000000000000000000000000000000000000600052603260045260246000fd5b7f4e487b7100000000000000000000000000000000000000000000000000000000600052601160045260246000fd5b6000612efd826124fd565b91507fffffffffffffffffffffffffffffffffffffffffffffffffffffffffffffffff821415612f3057612f2f612ec3565b5b600182019050919050565b7f4552433732313a2063616c6c6572206973206e6f74206f776e6572206e6f722060008201527f617070726f766564000000000000000000000000000000000000000000000000602082015250565b6000612f9760288361244d565b9150612fa282612f3b565b604082019050919050565b60006020820190508181036000830152612fc681612f8a565b9050919050565b600081905092915050565b6000612fe382612442565b612fed8185612fcd565b9350612ffd81856020860161245e565b80840191505092915050565b60006130158284612fd8565b915081905092915050565b7f4552433732313a20696e76616c696420746f6b656e2049440000000000000000600082015250565b600061305660188361244d565b915061306182613020565b602082019050919050565b6000602082019050818103600083015261308581613049565b9050919050565b7f4552433732313a2061646472657373207a65726f206973206e6f74206120766160008201527f6c6964206f776e65720000000000000000000000000000000000000000000000602082015250565b60006130e860298361244d565b91506130f38261308c565b604082019050919050565b60006020820190508181036000830152613117816130db565b9050919050565b7f5468697320757365726e616d652068617320616c7265616479206265656e207560008201527f73656420746f206d696e7420616e204e46540000000000000000000000000000602082015250565b600061317a60328361244d565b91506131858261311e565b604082019050919050565b600060208201905081810360008301526131a98161316d565b9050919050565b60006131bb826124fd565b91506131c6836124fd565b9250828210156131d9576131d8612ec3565b5b828203905092915050565b7f45524337323155524953746f726167653a2055524920717565727920666f722060008201527f6e6f6e6578697374656e7420746f6b656e000000000000000000000000000000602082015250565b600061324060318361244d565b915061324b826131e4565b604082019050919050565b6000602082019050818103600083015261326f81613233565b9050919050565b7f4f776e61626c653a206e6577206f776e657220697320746865207a65726f206160008201527f6464726573730000000000000000000000000000000000000000000000000000602082015250565b60006132d260268361244d565b91506132dd82613276565b604082019050919050565b60006020820190508181036000830152613301816132c5565b9050919050565b7f4552433732313a207472616e736665722066726f6d20696e636f72726563742060008201527f6f776e6572000000000000000000000000000000000000000000000000000000602082015250565b600061336460258361244d565b915061336f82613308565b604082019050919050565b6000602082019050818103600083015261339381613357565b9050919050565b7f4552433732313a207472616e7366657220746f20746865207a65726f2061646460008201527f7265737300000000000000000000000000000000000000000000000000000000602082015250565b60006133f660248361244d565b91506134018261339a565b604082019050919050565b60006020820190508181036000830152613425816133e9565b9050919050565b7f4f776e61626c653a2063616c6c6572206973206e6f7420746865206f776e6572600082015250565b600061346260208361244d565b915061346d8261342c565b602082019050919050565b6000602082019050818103600083015261349181613455565b9050919050565b7f4552433732313a20617070726f766520746f2063616c6c657200000000000000600082015250565b60006134ce60198361244d565b91506134d982613498565b602082019050919050565b600060208201905081810360008301526134fd816134c1565b9050919050565b7f4552433732313a207472616e7366657220746f206e6f6e20455243373231526560008201527f63656976657220696d706c656d656e7465720000000000000000000000000000602082015250565b600061356060328361244d565b915061356b82613504565b604082019050919050565b6000602082019050818103600083015261358f81613553565b9050919050565b600081519050919050565b600082825260208201905092915050565b60006135bd82613596565b6135c781856135a1565b93506135d781856020860161245e565b6135e081612491565b840191505092915050565b60006080820190506136006000830187612592565b61360d6020830186612592565b61361a6040830185612862565b818103606083015261362c81846135b2565b905095945050505050565b600081519050613646816123b3565b92915050565b6000602082840312156136625761366161237d565b5b600061367084828501613637565b91505092915050565b7f4552433732313a206d696e7420746f20746865207a65726f2061646472657373600082015250565b60006136af60208361244d565b91506136ba82613679565b602082019050919050565b600060208201905081810360008301526136de816136a2565b9050919050565b7f4552433732313a20746f6b656e20616c7265616479206d696e74656400000000600082015250565b600061371b601c8361244d565b9150613726826136e5565b602082019050919050565b6000602082019050818103600083015261374a8161370e565b905091905056fea264697066735822122008dd196226fe3b5ca6169b9ba6777d1ea2b63fc6dcb4c28e68a0a5f001219f0564736f6c63430008090033",
  "linkReferences": {},
  "deployedLinkReferences": {}
}